{
  "contractName": "A",
  "abi": [
    {
      "inputs": [
        {
          "internalType": "address",
          "name": "eoa",
          "type": "address"
        }
      ],
      "stateMutability": "nonpayable",
      "type": "constructor"
    },
    {
      "inputs": [],
      "name": "ownerA",
      "outputs": [
        {
          "internalType": "address",
          "name": "",
          "type": "address"
        }
      ],
      "stateMutability": "view",
      "type": "function"
    }
  ],
  "bytecode": "0x608060405234801561001057600080fd5b5060405161015738038061015783398101604081905261002f91610054565b60008054600160a060020a031916600160a060020a0392909216919091179055610082565b600060208284031215610065578081fd5b8151600160a060020a038116811461007b578182fd5b9392505050565b60c7806100906000396000f3fe6080604052348015600f57600080fd5b50600436106044577c01000000000000000000000000000000000000000000000000000000006000350463e06f3d3881146049575b600080fd5b60005460689073ffffffffffffffffffffffffffffffffffffffff1681565b60405173ffffffffffffffffffffffffffffffffffffffff909116815260200160405180910390f3fea26469706673582212202a13abe3a21f825e109dec872f7a6222f6d7db0984dc3c3bc1549869ca5dc0b164736f6c63430008040033",
  "immutableReferences": {},
  "source": "//SPDX-License-Identifier: Unlicense    \n\npragma solidity >=0.5.0 <0.9.0;\n\ncontract A{\n    address public ownerA;\n    constructor(address eoa){\n        ownerA = eoa;\n    }\n}\n\ncontract Creator{\n    address public ownerCreator;\n    A[] public deployedA;\n\n    constructor() {\n        ownerCreator = msg.sender;\n    }\n\n    function deployA() public {\n        A new_A_address = new A(msg.sender);\n        deployedA.push(new_A_address);\n    }\n}\n",
  "sourcePath": "/Users/nlwsoft/Desktop/Contract_Leilao/contracts/Scability/deployContracts.sol",
  "compiler": {
    "name": "solc",
    "version": "0.8.4+commit.c7e474f2.Emscripten.clang"
  },
  "schemaVersion": "3.4.3",
  "updatedAt": "2022-01-17T16:48:38.937Z",
  "devdoc": {
    "kind": "dev",
    "methods": {},
    "version": 1
  },
  "userdoc": {
    "kind": "user",
    "methods": {},
    "version": 1
  }
}