{
  "contractName": "Auction",
  "abi": [
    {
      "inputs": [],
      "stateMutability": "nonpayable",
      "type": "constructor"
    },
    {
      "anonymous": false,
      "inputs": [],
      "name": "AuctionCanceled",
      "type": "event"
    },
    {
      "inputs": [],
      "name": "_name",
      "outputs": [
        {
          "internalType": "string",
          "name": "",
          "type": "string"
        }
      ],
      "stateMutability": "view",
      "type": "function",
      "constant": true
    },
    {
      "inputs": [],
      "name": "auctionState",
      "outputs": [
        {
          "internalType": "enum Auction.State",
          "name": "",
          "type": "uint8"
        }
      ],
      "stateMutability": "view",
      "type": "function",
      "constant": true
    },
    {
      "inputs": [
        {
          "internalType": "address",
          "name": "",
          "type": "address"
        }
      ],
      "name": "bids",
      "outputs": [
        {
          "internalType": "uint256",
          "name": "",
          "type": "uint256"
        }
      ],
      "stateMutability": "view",
      "type": "function",
      "constant": true
    },
    {
      "inputs": [],
      "name": "endBlock",
      "outputs": [
        {
          "internalType": "uint256",
          "name": "",
          "type": "uint256"
        }
      ],
      "stateMutability": "view",
      "type": "function",
      "constant": true
    },
    {
      "inputs": [],
      "name": "highestBidder",
      "outputs": [
        {
          "internalType": "address payable",
          "name": "",
          "type": "address"
        }
      ],
      "stateMutability": "view",
      "type": "function",
      "constant": true
    },
    {
      "inputs": [],
      "name": "highestBindingBid",
      "outputs": [
        {
          "internalType": "uint256",
          "name": "",
          "type": "uint256"
        }
      ],
      "stateMutability": "view",
      "type": "function",
      "constant": true
    },
    {
      "inputs": [],
      "name": "ipfsHash",
      "outputs": [
        {
          "internalType": "string",
          "name": "",
          "type": "string"
        }
      ],
      "stateMutability": "view",
      "type": "function",
      "constant": true
    },
    {
      "inputs": [],
      "name": "owner",
      "outputs": [
        {
          "internalType": "address payable",
          "name": "",
          "type": "address"
        }
      ],
      "stateMutability": "view",
      "type": "function",
      "constant": true
    },
    {
      "inputs": [],
      "name": "startBlock",
      "outputs": [
        {
          "internalType": "uint256",
          "name": "",
          "type": "uint256"
        }
      ],
      "stateMutability": "view",
      "type": "function",
      "constant": true
    },
    {
      "stateMutability": "payable",
      "type": "receive",
      "payable": true
    },
    {
      "inputs": [],
      "name": "cancelAuction",
      "outputs": [],
      "stateMutability": "nonpayable",
      "type": "function"
    },
    {
      "inputs": [],
      "name": "placeBid",
      "outputs": [],
      "stateMutability": "payable",
      "type": "function",
      "payable": true
    }
  ],
  "bytecode": "0x60c0604052600760808190527f41756374696f6e0000000000000000000000000000000000000000000000000060a090815261003e91600991906100ab565b5034801561004b57600080fd5b5060008054600160a060020a031916331790556004805460ff19166001908117909155439081905561007f90619d80610144565b6002556040805160208101918290526000908190526100a0916003916100ab565b5060646008556101d5565b8280546100b790610181565b90600052602060002090601f0160209004810192826100d9576000855561011f565b82601f106100f257805160ff191683800117855561011f565b8280016001018555821561011f579182015b8281111561011f578251825591602001919060010190610104565b5061012b92915061012f565b5090565b5b8082111561012b5760008155600101610130565b6000821982111561017c577f4e487b710000000000000000000000000000000000000000000000000000000081526011600452602481fd5b500190565b60028104600182168061019557607f821691505b602082108114156101cf577f4e487b7100000000000000000000000000000000000000000000000000000000600052602260045260246000fd5b50919050565b6106d3806101e46000396000f3fe6080604052600436106100bd576000357c0100000000000000000000000000000000000000000000000000000000900480638fa8b790116100815780638fa8b7901461019457806391f90157146101ab578063c623674f146101cb578063d28d8852146101ed578063ecfc7ecc14610202578063f5b56c561461020a57600080fd5b8063083c6323146100c957806348cd4cb1146100f257806362ea82db146101085780637fb45099146101355780638da5cb5b1461015c57600080fd5b366100c457005b600080fd5b3480156100d557600080fd5b506100df60025481565b6040519081526020015b60405180910390f35b3480156100fe57600080fd5b506100df60015481565b34801561011457600080fd5b506100df61012336600461058c565b60076020526000908152604090205481565b34801561014157600080fd5b5060045461014f9060ff1681565b6040516100e991906105ba565b34801561016857600080fd5b5060005461017c90600160a060020a031681565b604051600160a060020a0390911681526020016100e9565b3480156101a057600080fd5b506101a9610220565b005b3480156101b757600080fd5b5060065461017c90600160a060020a031681565b3480156101d757600080fd5b506101e06102d1565b6040516100e991906105e5565b3480156101f957600080fd5b506101e061035f565b6101a961036c565b34801561021657600080fd5b506100df60055481565b600054600160a060020a03163314610299576040517f08c379a000000000000000000000000000000000000000000000000000000000815260206004820152601e60248201527f54686520616464726573732063616c6c206e6f74206973206f776e657221000060448201526064015b60405180910390fd5b6004805460ff191660031790556040517f3edab9d02702b82c68bc3a966d302af41abe4f3d8e2408b27b94e5f9bf2d722c90600090a1565b600380546102de9061065f565b80601f016020809104026020016040519081016040528092919081815260200182805461030a9061065f565b80156103575780601f1061032c57610100808354040283529160200191610357565b820191906000526020600020905b81548152906001019060200180831161033a57829003601f168201915b505050505081565b600980546102de9061065f565b600054600160a060020a031633141561038457600080fd5b6001544310156103f0576040517f08c379a000000000000000000000000000000000000000000000000000000000815260206004820152601860248201527f41756374696f6e20686173206e6f7420737461727465642100000000000000006044820152606401610290565b60025443111561045c576040517f08c379a000000000000000000000000000000000000000000000000000000000815260206004820152601660248201527f5468652061756374696f6e2068617320656e64656421000000000000000000006044820152606401610290565b600160045460ff1660038111156104865760e060020a634e487b7102600052602160045260246000fd5b1461049057600080fd5b606434101561049e57600080fd5b336000908152600760205260408120546104b9903490610638565b905060055481116104c957600080fd5b336000908152600760205260409020819055600554811161051b57610515600854826104f59190610638565b600654600160a060020a0316600090815260076020526040902054610573565b60055550565b600854600654600160a060020a031660009081526007602052604090205461054e9183916105499190610638565b610573565b6005556006805473ffffffffffffffffffffffffffffffffffffffff19163317905550565b6000818311610583575081610586565b50805b92915050565b60006020828403121561059d578081fd5b8135600160a060020a03811681146105b3578182fd5b9392505050565b60208101600483106105df5760e060020a634e487b7102600052602160045260246000fd5b91905290565b6000602080835283518082850152825b81811015610611578581018301518582016040015282016105f5565b818111156106225783604083870101525b50601f01601f1916929092016040019392505050565b6000821982111561065a5760e060020a634e487b710281526011600452602481fd5b500190565b60028104600182168061067357607f821691505b602082108114156106975760e060020a634e487b7102600052602260045260246000fd5b5091905056fea2646970667358221220a7db43a2b9789217be199ecedea652f6f9216789db9f82fc228fde4091e2620d64736f6c63430008040033",
  "immutableReferences": {},
  "source": "//SPDX-License-Identifier: Unlicense    \n\npragma solidity >=0.5.0 <0.9.0;\n\ncontract Auction{\n    /** \n        @dev declare all state variables \n    */\n    address payable public owner; \n    //declare time variables with start block and end block\n    uint public startBlock;\n    uint public endBlock;\n    //declare string for IPFS Hash \n    string public ipfsHash;\n    //List for States of running Auction\n    enum State {Started, Running, Ended, Canceled}\n    State public auctionState;\n    //declare variable for the price and the highest bid\n    uint public highestBindingBid;\n    address payable public highestBidder;\n    //declare state variable for the add address for peoples lauching the auction\n    mapping(address => uint ) public bids;\n    //declare state variable for increment peoples for lauching the auction.\n    uint bidIncrement;\n\n    string public _name = \"Auction\";\n\n    receive() external payable {}\n    constructor(){\n        owner = payable(msg.sender);\n        auctionState = State.Running;\n        //calculate the blocktime: \n        /**@dev the block on Ethereum is updated every 15 secounds*/\n        startBlock = block.number; \n        // 1 week = 60*60*24*7 = 604800 / 15(secounds) = 40,320 \n        endBlock = startBlock + 40320;\n        ipfsHash = \"\";\n        //increment = 100 wei\n        bidIncrement = 100;\n\n    }\n\n    event AuctionCanceled();\n\n    //modifier for verift if msg.sender not owner\n    modifier  notOwner() {\n        require(msg.sender != owner); \n        _;\n    }\n    //modifier for verift if time is start\n    modifier afterStart(){\n        require(block.number >= startBlock,\"Auction has not started!\");\n        _;\n    }\n    //modifier for verift if time is end \n    modifier beforeEnd(){\n        require(block.number <= endBlock, \"The auction has ended!\");\n        _;\n    }\n    //modifier to check if msg.sender is owner\n    modifier onlyOwner(){\n        require(msg.sender == owner, \"The address call not is owner!\");\n        _;\n    }\n\n    //* function to calculate highest bid and lowest bid, \n    //* this functions is pure because not change the block (tx)\n    function min(uint a, uint b) pure internal returns(uint){\n        /**@dev if a < b return a value\n           ->  if value = a this lance A is larger\n           ->  if value = b this lance B is larger\n         */\n        if(a<=b){\n            return a;\n        }else{\n            return b;\n        }\n    }\n\n    function cancelAuction() public  onlyOwner  { \n       auctionState = State.Canceled;\n       emit AuctionCanceled();\n    }\n\n    function placeBid() external payable notOwner afterStart beforeEnd {\n        require(auctionState == State.Running);\n        require(msg.value >= 100); //min 100wei\n        \n        uint currentBid = bids[msg.sender] + msg.value; \n        require(currentBid > highestBindingBid);\n        bids[msg.sender] = currentBid;\n\n        if(currentBid <= highestBindingBid){\n            highestBindingBid = min(currentBid + bidIncrement, bids[highestBidder]);   \n        }else{\n            highestBindingBid = min(currentBid, bids[highestBidder] + bidIncrement);\n            highestBidder = payable(msg.sender);\n        }\n    }\n\n \n\n}",
  "sourcePath": "/Users/nlwsoft/Desktop/Contract_Leilao/contracts/Auction.sol",
  "compiler": {
    "name": "solc",
    "version": "0.8.4+commit.c7e474f2.Emscripten.clang"
  },
  "schemaVersion": "3.4.3",
  "updatedAt": "2022-01-17T11:59:56.563Z",
  "networkType": "ethereum",
  "devdoc": {
    "kind": "dev",
    "methods": {},
    "stateVariables": {
      "owner": {
        "details": "declare all state variables "
      }
    },
    "version": 1
  },
  "userdoc": {
    "kind": "user",
    "methods": {},
    "version": 1
  }
}