{
  "contractName": "Auction",
  "abi": [
    {
      "inputs": [],
      "stateMutability": "nonpayable",
      "type": "constructor"
    },
    {
      "inputs": [],
      "name": "_name",
      "outputs": [
        {
          "internalType": "string",
          "name": "",
          "type": "string"
        }
      ],
      "stateMutability": "view",
      "type": "function",
      "constant": true
    },
    {
      "inputs": [],
      "name": "auctionState",
      "outputs": [
        {
          "internalType": "enum Auction.State",
          "name": "",
          "type": "uint8"
        }
      ],
      "stateMutability": "view",
      "type": "function",
      "constant": true
    },
    {
      "inputs": [
        {
          "internalType": "address",
          "name": "",
          "type": "address"
        }
      ],
      "name": "bids",
      "outputs": [
        {
          "internalType": "uint256",
          "name": "",
          "type": "uint256"
        }
      ],
      "stateMutability": "view",
      "type": "function",
      "constant": true
    },
    {
      "inputs": [],
      "name": "endBlock",
      "outputs": [
        {
          "internalType": "uint256",
          "name": "",
          "type": "uint256"
        }
      ],
      "stateMutability": "view",
      "type": "function",
      "constant": true
    },
    {
      "inputs": [],
      "name": "highestBidder",
      "outputs": [
        {
          "internalType": "address payable",
          "name": "",
          "type": "address"
        }
      ],
      "stateMutability": "view",
      "type": "function",
      "constant": true
    },
    {
      "inputs": [],
      "name": "highestBindingBid",
      "outputs": [
        {
          "internalType": "uint256",
          "name": "",
          "type": "uint256"
        }
      ],
      "stateMutability": "view",
      "type": "function",
      "constant": true
    },
    {
      "inputs": [],
      "name": "ipfsHash",
      "outputs": [
        {
          "internalType": "string",
          "name": "",
          "type": "string"
        }
      ],
      "stateMutability": "view",
      "type": "function",
      "constant": true
    },
    {
      "inputs": [],
      "name": "owner",
      "outputs": [
        {
          "internalType": "address payable",
          "name": "",
          "type": "address"
        }
      ],
      "stateMutability": "view",
      "type": "function",
      "constant": true
    },
    {
      "inputs": [],
      "name": "startBlock",
      "outputs": [
        {
          "internalType": "uint256",
          "name": "",
          "type": "uint256"
        }
      ],
      "stateMutability": "view",
      "type": "function",
      "constant": true
    },
    {
      "stateMutability": "payable",
      "type": "receive",
      "payable": true
    },
    {
      "inputs": [],
      "name": "placeBid",
      "outputs": [],
      "stateMutability": "payable",
      "type": "function",
      "payable": true
    }
  ],
  "bytecode": "0x60c0604052600760808190527f41756374696f6e0000000000000000000000000000000000000000000000000060a090815261003e91600991906100ab565b5034801561004b57600080fd5b5060008054600160a060020a031916331790556004805460ff19166001908117909155439081905561007f90619d80610144565b6002556040805160208101918290526000908190526100a0916003916100ab565b5060646008556101d5565b8280546100b790610181565b90600052602060002090601f0160209004810192826100d9576000855561011f565b82601f106100f257805160ff191683800117855561011f565b8280016001018555821561011f579182015b8281111561011f578251825591602001919060010190610104565b5061012b92915061012f565b5090565b5b8082111561012b5760008155600101610130565b6000821982111561017c577f4e487b710000000000000000000000000000000000000000000000000000000081526011600452602481fd5b500190565b60028104600182168061019557607f821691505b602082108114156101cf577f4e487b7100000000000000000000000000000000000000000000000000000000600052602260045260246000fd5b50919050565b610548806101e46000396000f3fe6080604052600436106100b2576000357c01000000000000000000000000000000000000000000000000000000009004806391f901571161007657806391f9015714610189578063c623674f146101a9578063d28d8852146101cb578063ecfc7ecc146101e0578063f5b56c56146101ea57600080fd5b8063083c6323146100be57806348cd4cb1146100e757806362ea82db146100fd5780637fb450991461012a5780638da5cb5b1461015157600080fd5b366100b957005b600080fd5b3480156100ca57600080fd5b506100d460025481565b6040519081526020015b60405180910390f35b3480156100f357600080fd5b506100d460015481565b34801561010957600080fd5b506100d4610118366004610401565b60076020526000908152604090205481565b34801561013657600080fd5b506004546101449060ff1681565b6040516100de919061042f565b34801561015d57600080fd5b5060005461017190600160a060020a031681565b604051600160a060020a0390911681526020016100de565b34801561019557600080fd5b5060065461017190600160a060020a031681565b3480156101b557600080fd5b506101be610200565b6040516100de919061045a565b3480156101d757600080fd5b506101be61028e565b6101e861029b565b005b3480156101f657600080fd5b506100d460055481565b6003805461020d906104d4565b80601f0160208091040260200160405190810160405280929190818152602001828054610239906104d4565b80156102865780601f1061025b57610100808354040283529160200191610286565b820191906000526020600020905b81548152906001019060200180831161026957829003601f168201915b505050505081565b6009805461020d906104d4565b600054600160a060020a03163314156102b357600080fd5b6001544310156102c257600080fd5b6002544311156102d157600080fd5b600160045460ff1660038111156102fb5760e060020a634e487b7102600052602160045260246000fd5b1461030557600080fd5b606434101561031357600080fd5b3360009081526007602052604081205461032e9034906104ad565b9050600554811161033e57600080fd5b33600090815260076020526040902081905560055481116103905761038a6008548261036a91906104ad565b600654600160a060020a03166000908152600760205260409020546103e8565b60055550565b600854600654600160a060020a03166000908152600760205260409020546103c39183916103be91906104ad565b6103e8565b6005556006805473ffffffffffffffffffffffffffffffffffffffff19163317905550565b60008183116103f85750816103fb565b50805b92915050565b600060208284031215610412578081fd5b8135600160a060020a0381168114610428578182fd5b9392505050565b60208101600483106104545760e060020a634e487b7102600052602160045260246000fd5b91905290565b6000602080835283518082850152825b818110156104865785810183015185820160400152820161046a565b818111156104975783604083870101525b50601f01601f1916929092016040019392505050565b600082198211156104cf5760e060020a634e487b710281526011600452602481fd5b500190565b6002810460018216806104e857607f821691505b6020821081141561050c5760e060020a634e487b7102600052602260045260246000fd5b5091905056fea26469706673582212202af5a4f3ba3c003f4ba99d76e963acc7257fccf8500237069da54680065e760064736f6c63430008040033",
  "immutableReferences": {},
  "source": "//SPDX-License-Identifier: Unlicense    \n\npragma solidity >=0.5.0 <0.9.0;\n\ncontract Auction{\n    /** \n        @dev declare all state variables \n    */\n    address payable public owner; \n    //declare time variables with start block and end block\n    uint public startBlock;\n    uint public endBlock;\n    //declare string for IPFS Hash \n    string public ipfsHash;\n    //List for States of running Auction\n    enum State {Started, Running, Ended, Canceled}\n    State public auctionState;\n    //declare variable for the price and the highest bid\n    uint public highestBindingBid;\n    address payable public highestBidder;\n    //declare state variable for the add address for peoples lauching the auction\n    mapping(address => uint ) public bids;\n    //declare state variable for increment peoples for lauching the auction.\n    uint bidIncrement;\n\n    string public _name = \"Auction\";\n\n    receive() external payable {}\n    constructor(){\n        owner = payable(msg.sender);\n        auctionState = State.Running;\n        //calculate the blocktime: \n        /**@dev the block on Ethereum is updated every 15 secounds*/\n        startBlock = block.number; \n        // 1 week = 60*60*24*7 = 604800 / 15(secounds) = 40,320 \n        endBlock = startBlock + 40320;\n        ipfsHash = \"\";\n        //increment = 100 wei\n        bidIncrement = 100;\n\n    }\n\n    //modifier for verift if msg.sender not owner\n    modifier  notOwner() {\n        require(msg.sender != owner); \n        _;\n    }\n    //modifier for verift if time is start\n    modifier afterStart(){\n        require(block.number >= startBlock);\n        _;\n    }\n    //modifier for verift if time is end \n    modifier beforeEnd(){\n        require(block.number <= endBlock);\n        _;\n    }\n\n    //* function to calculate highest bid and lowest bid, \n    //* this functions is pure because not change the block (tx)\n    function min(uint a, uint b) pure internal returns(uint){\n        /**@dev if a < b return a value\n           ->  if value = a this lance A is larger\n           ->  if value = b this lance B is larger\n         */\n        if(a<=b){\n            return a;\n        }else{\n            return b;\n        }\n    }\n\n    function placeBid() external payable notOwner afterStart beforeEnd {\n        require(auctionState == State.Running);\n        require(msg.value >= 100); //min 100wei\n        \n        uint currentBid = bids[msg.sender] + msg.value; \n        require(currentBid > highestBindingBid);\n        bids[msg.sender] = currentBid;\n\n        if(currentBid <= highestBindingBid){\n            highestBindingBid = min(currentBid + bidIncrement, bids[highestBidder]);   \n        }else{\n            highestBindingBid = min(currentBid, bids[highestBidder] + bidIncrement);\n            highestBidder = payable(msg.sender);\n        }\n    }\n\n \n\n}",
  "sourcePath": "/Users/nlwsoft/Desktop/Contract_Leilao/contracts/Auction.sol",
  "compiler": {
    "name": "solc",
    "version": "0.8.4+commit.c7e474f2.Emscripten.clang"
  },
  "schemaVersion": "3.4.3",
  "updatedAt": "2022-01-17T01:11:13.594Z",
  "networkType": "ethereum",
  "devdoc": {
    "kind": "dev",
    "methods": {},
    "stateVariables": {
      "owner": {
        "details": "declare all state variables "
      }
    },
    "version": 1
  },
  "userdoc": {
    "kind": "user",
    "methods": {},
    "version": 1
  }
}