{
  "contractName": "Auction",
  "abi": [
    {
      "inputs": [],
      "stateMutability": "nonpayable",
      "type": "constructor"
    },
    {
      "anonymous": false,
      "inputs": [],
      "name": "AuctionCanceled",
      "type": "event"
    },
    {
      "anonymous": false,
      "inputs": [],
      "name": "EndAuction",
      "type": "event"
    },
    {
      "inputs": [],
      "name": "_name",
      "outputs": [
        {
          "internalType": "string",
          "name": "",
          "type": "string"
        }
      ],
      "stateMutability": "view",
      "type": "function",
      "constant": true
    },
    {
      "inputs": [],
      "name": "auctionState",
      "outputs": [
        {
          "internalType": "enum Auction.State",
          "name": "",
          "type": "uint8"
        }
      ],
      "stateMutability": "view",
      "type": "function",
      "constant": true
    },
    {
      "inputs": [
        {
          "internalType": "address",
          "name": "",
          "type": "address"
        }
      ],
      "name": "bids",
      "outputs": [
        {
          "internalType": "uint256",
          "name": "",
          "type": "uint256"
        }
      ],
      "stateMutability": "view",
      "type": "function",
      "constant": true
    },
    {
      "inputs": [],
      "name": "endBlock",
      "outputs": [
        {
          "internalType": "uint256",
          "name": "",
          "type": "uint256"
        }
      ],
      "stateMutability": "view",
      "type": "function",
      "constant": true
    },
    {
      "inputs": [],
      "name": "highestBidder",
      "outputs": [
        {
          "internalType": "address payable",
          "name": "",
          "type": "address"
        }
      ],
      "stateMutability": "view",
      "type": "function",
      "constant": true
    },
    {
      "inputs": [],
      "name": "highestBindingBid",
      "outputs": [
        {
          "internalType": "uint256",
          "name": "",
          "type": "uint256"
        }
      ],
      "stateMutability": "view",
      "type": "function",
      "constant": true
    },
    {
      "inputs": [],
      "name": "ipfsHash",
      "outputs": [
        {
          "internalType": "string",
          "name": "",
          "type": "string"
        }
      ],
      "stateMutability": "view",
      "type": "function",
      "constant": true
    },
    {
      "inputs": [],
      "name": "owner",
      "outputs": [
        {
          "internalType": "address payable",
          "name": "",
          "type": "address"
        }
      ],
      "stateMutability": "view",
      "type": "function",
      "constant": true
    },
    {
      "inputs": [],
      "name": "startBlock",
      "outputs": [
        {
          "internalType": "uint256",
          "name": "",
          "type": "uint256"
        }
      ],
      "stateMutability": "view",
      "type": "function",
      "constant": true
    },
    {
      "stateMutability": "payable",
      "type": "receive",
      "payable": true
    },
    {
      "inputs": [],
      "name": "cancelAuction",
      "outputs": [],
      "stateMutability": "nonpayable",
      "type": "function"
    },
    {
      "inputs": [],
      "name": "placeBid",
      "outputs": [],
      "stateMutability": "payable",
      "type": "function",
      "payable": true
    },
    {
      "inputs": [],
      "name": "finishAuction",
      "outputs": [],
      "stateMutability": "nonpayable",
      "type": "function"
    }
  ],
  "bytecode": "0x60c0604052600760808190527f41756374696f6e0000000000000000000000000000000000000000000000000060a090815261003e91600991906100ae565b5034801561004b57600080fd5b5060008054600160a060020a031916331790556004805460ff191660019081178255439081905561007b91610147565b60025560408051602081019182905260009081905261009c916003916100ae565b50670de0b6b3a76400006008556101d8565b8280546100ba90610184565b90600052602060002090601f0160209004810192826100dc5760008555610122565b82601f106100f557805160ff1916838001178555610122565b82800160010185558215610122579182015b82811115610122578251825591602001919060010190610107565b5061012e929150610132565b5090565b5b8082111561012e5760008155600101610133565b6000821982111561017f577f4e487b710000000000000000000000000000000000000000000000000000000081526011600452602481fd5b500190565b60028104600182168061019857607f821691505b602082108114156101d2577f4e487b7100000000000000000000000000000000000000000000000000000000600052602260045260246000fd5b50919050565b610923806101e76000396000f3fe6080604052600436106100c8576000357c0100000000000000000000000000000000000000000000000000000000900480638fa8b790116100815780638fa8b790146101b657806391f90157146101cb578063c623674f146101eb578063d28d88521461020d578063ecfc7ecc14610222578063f5b56c561461022a57600080fd5b8063083c6323146100d4578063430ca46f146100fd57806348cd4cb11461011457806362ea82db1461012a5780637fb45099146101575780638da5cb5b1461017e57600080fd5b366100cf57005b600080fd5b3480156100e057600080fd5b506100ea60025481565b6040519081526020015b60405180910390f35b34801561010957600080fd5b50610112610240565b005b34801561012057600080fd5b506100ea60015481565b34801561013657600080fd5b506100ea6101453660046107bb565b60076020526000908152604090205481565b34801561016357600080fd5b506004546101719060ff1681565b6040516100f491906107e9565b34801561018a57600080fd5b5060005461019e90600160a060020a031681565b604051600160a060020a0390911681526020016100f4565b3480156101c257600080fd5b50610112610499565b3480156101d757600080fd5b5060065461019e90600160a060020a031681565b3480156101f757600080fd5b5061020061052e565b6040516100f49190610814565b34801561021957600080fd5b506102006105bc565b6101126105c9565b34801561023657600080fd5b506100ea60055481565b600360045460ff16600381111561026a5760e060020a634e487b7102600052602160045260246000fd5b1480610277575060025443115b6102cb5760405160e560020a62461bcd02815260206004820152601d60248201527f5468652061756374696f6e20686173206e6f742066696e69736865642100000060448201526064015b60405180910390fd5b600054600160a060020a03163314806102f257503360009081526007602052604090205415155b6103415760405160e560020a62461bcd02815260206004820152601e60248201527f54686520616464726573732063616c6c206e6f74206973206f776e657221000060448201526064016102c2565b336000526007602052600080600360045460ff1660038111156103775760e060020a634e487b7102600052602160045260246000fd5b14156103945750503360008181526007602052604090205461041a565b600054600160a060020a03163314156103c0575050600054600554600160a060020a039091169061041a565b600654600160a060020a031633141561040757600654600554600160a060020a03909116600081815260076020526040902054909350610400919061087f565b905061041a565b5050336000818152600760205260409020545b600160a060020a0382166000818152600760205260408082208290555183156108fc0291849190818181858888f1935050505015801561045e573d6000803e3d6000fd5b506004805460ff191660021790556040517f6a7798ee7f69aa0feb65d589cb03c2c77da10f2c18a03327f4f18abde8bae7cc90600090a15050565b600054600160a060020a031633146104f65760405160e560020a62461bcd02815260206004820152601e60248201527f54686520616464726573732063616c6c206e6f74206973206f776e657221000060448201526064016102c2565b6004805460ff191660031790556040517f3edab9d02702b82c68bc3a966d302af41abe4f3d8e2408b27b94e5f9bf2d722c90600090a1565b6003805461053b90610896565b80601f016020809104026020016040519081016040528092919081815260200182805461056790610896565b80156105b45780601f10610589576101008083540402835291602001916105b4565b820191906000526020600020905b81548152906001019060200180831161059757829003601f168201915b505050505081565b6009805461053b90610896565b600054600160a060020a03163314156105e157600080fd5b6001544310156106365760405160e560020a62461bcd02815260206004820152601860248201527f41756374696f6e20686173206e6f74207374617274656421000000000000000060448201526064016102c2565b60025443111561068b5760405160e560020a62461bcd02815260206004820152601660248201527f5468652061756374696f6e2068617320656e646564210000000000000000000060448201526064016102c2565b600160045460ff1660038111156106b55760e060020a634e487b7102600052602160045260246000fd5b146106bf57600080fd5b60643410156106cd57600080fd5b336000908152600760205260408120546106e8903490610867565b905060055481116106f857600080fd5b336000908152600760205260409020819055600554811161074a57610744600854826107249190610867565b600654600160a060020a03166000908152600760205260409020546107a2565b60055550565b600854600654600160a060020a031660009081526007602052604090205461077d9183916107789190610867565b6107a2565b6005556006805473ffffffffffffffffffffffffffffffffffffffff19163317905550565b60008183116107b25750816107b5565b50805b92915050565b6000602082840312156107cc578081fd5b8135600160a060020a03811681146107e2578182fd5b9392505050565b602081016004831061080e5760e060020a634e487b7102600052602160045260246000fd5b91905290565b6000602080835283518082850152825b8181101561084057858101830151858201604001528201610824565b818111156108515783604083870101525b50601f01601f1916929092016040019392505050565b6000821982111561087a5761087a6108d4565b500190565b600082821015610891576108916108d4565b500390565b6002810460018216806108aa57607f821691505b602082108114156108ce5760e060020a634e487b7102600052602260045260246000fd5b50919050565b60e060020a634e487b7102600052601160045260246000fdfea2646970667358221220844dfe38b079764bfcae62d0fe4a9565fb7ab99e574cc2bb623dd93f7aa2c34864736f6c63430008040033",
  "immutableReferences": {},
  "source": "//SPDX-License-Identifier: Unlicense    \n\npragma solidity >=0.5.0 <0.9.0;\n\ncontract Auction{\n    /** \n        @dev declare all state variables \n    */\n    address payable public owner; \n    //declare time variables with start block and end block\n    uint public startBlock;\n    uint public endBlock;\n    //declare string for IPFS Hash \n    string public ipfsHash;\n    //List for States of running Auction\n    enum State {Started, Running, Ended, Canceled}\n    State public auctionState;\n    //declare variable for the price and the highest bid\n    uint public highestBindingBid;\n    address payable public highestBidder;\n    //declare state variable for the add address for peoples lauching the auction\n    mapping(address => uint ) public bids;\n    //declare state variable for increment peoples for lauching the auction.\n    uint bidIncrement;\n\n    string public _name = \"Auction\";\n\n    receive() external payable {}\n    constructor(){\n        owner = payable(msg.sender);\n        auctionState = State.Running;\n        //calculate the blocktime: \n        /**@dev the block on Ethereum is updated every 15 secounds*/\n        startBlock = block.number; \n        // 1 week = 60*60*24*7 = 604800 / 15(secounds) = 40,320 \n        endBlock = startBlock + 4;\n        ipfsHash = \"\";\n        //increment = 100 wei\n        bidIncrement = 1 ether;\n\n    }\n\n    event AuctionCanceled();\n    event EndAuction();\n\n    //modifier for verift if msg.sender not owner\n    modifier  notOwner() {\n        require(msg.sender != owner); \n        _;\n    }\n    //modifier for verift if time is start\n    modifier afterStart(){\n        require(block.number >= startBlock,\"Auction has not started!\");\n        _;\n    }\n    //modifier for verift if time is end \n    modifier beforeEnd(){\n        require(block.number <= endBlock, \"The auction has ended!\");\n        _;\n    }\n    //modifier to check if msg.sender is owner\n    modifier onlyOwner(){\n        require(msg.sender == owner, \"The address call not is owner!\");\n        _;\n    }\n\n    //* function to calculate highest bid and lowest bid, \n    //* this functions is pure because not change the block (tx)\n    function min(uint a, uint b) pure internal returns(uint){\n        /**@dev if a < b return a value\n           ->  if value = a this lance A is larger\n           ->  if value = b this lance B is larger\n         */\n        if(a<=b){\n            return a;\n        }else{\n            return b;\n        }\n    }\n\n    function cancelAuction() public  onlyOwner  { \n       auctionState = State.Canceled;\n       emit AuctionCanceled();\n    }\n\n    function placeBid() external payable notOwner afterStart beforeEnd {\n        require(auctionState == State.Running);\n        require(msg.value >= 100); //min 100wei\n        \n        uint currentBid = bids[msg.sender] + msg.value; \n        require(currentBid > highestBindingBid);\n        bids[msg.sender] = currentBid;\n\n        if(currentBid <= highestBindingBid){\n            highestBindingBid = min(currentBid + bidIncrement, bids[highestBidder]);   \n        }else{\n            highestBindingBid = min(currentBid, bids[highestBidder] + bidIncrement);\n            highestBidder = payable(msg.sender);\n        }\n    }\n\n    function finishAuction() public {\n        require(auctionState == State.Canceled || block.number > endBlock, \"The auction has not finished!\");\n        require(msg.sender == owner || bids[msg.sender] > 0, \"The address call not is owner!\");\n        require(bids[msg.sender] >= 0, \"You have already withdrawn your funds or not bid!\");\n\n        address payable recipient;\n        uint value; \n\n        if(auctionState == State.Canceled){ //auction was canceled\n            recipient = payable(msg.sender);\n            /**@dev the bids[] is mapping value was deposit. */\n            value = bids[msg.sender];\n        }else{ //auction not canceled\n            if(msg.sender == owner){\n                recipient = owner;\n                value = highestBindingBid;\n            }else{ //this is a bidder\n               if(msg.sender == highestBidder){\n                   recipient = highestBidder;\n                   value = bids[highestBidder] - highestBindingBid;\n               }else{ // this is neither the owner nor the highestBidder\n                    recipient = payable(msg.sender);\n                    value = bids[msg.sender];\n               }\n            }\n        }\n\n        bids[recipient] = 0;\n        recipient.transfer(value);\n        auctionState = State.Ended;\n        emit EndAuction();\n    }\n}",
  "sourcePath": "/Users/nlwsoft/Desktop/Contract_Leilao/contracts/Auction.sol",
  "compiler": {
    "name": "solc",
    "version": "0.8.4+commit.c7e474f2.Emscripten.clang"
  },
  "schemaVersion": "3.4.3",
  "updatedAt": "2022-01-17T15:56:49.828Z",
  "networkType": "ethereum",
  "devdoc": {
    "kind": "dev",
    "methods": {},
    "stateVariables": {
      "owner": {
        "details": "declare all state variables "
      }
    },
    "version": 1
  },
  "userdoc": {
    "kind": "user",
    "methods": {},
    "version": 1
  }
}