{
  "contractName": "AuctionCreator",
  "abi": [
    {
      "inputs": [
        {
          "internalType": "uint256",
          "name": "",
          "type": "uint256"
        }
      ],
      "name": "auctions",
      "outputs": [
        {
          "internalType": "contract Auction",
          "name": "",
          "type": "address"
        }
      ],
      "stateMutability": "view",
      "type": "function",
      "constant": true
    },
    {
      "inputs": [],
      "name": "createAuction",
      "outputs": [],
      "stateMutability": "nonpayable",
      "type": "function"
    }
  ],
  "bytecode": "0x608060405234801561001057600080fd5b50610d7e806100206000396000f3fe608060405234801561001057600080fd5b5060043610610052577c01000000000000000000000000000000000000000000000000000000006000350463571a26a08114610057578063f581144714610093575b600080fd5b61006a610065366004610194565b61009d565b60405173ffffffffffffffffffffffffffffffffffffffff909116815260200160405180910390f35b61009b6100d4565b005b600081815481106100ad57600080fd5b60009182526020909120015473ffffffffffffffffffffffffffffffffffffffff16905081565b6000336040516100e390610187565b73ffffffffffffffffffffffffffffffffffffffff9091168152602001604051809103906000f08015801561011c573d6000803e3d6000fd5b50600080546001810182559080527f290decd9548b62a8d60345a988386fc84ba6bc95484008f6362f93160ef3e56301805473ffffffffffffffffffffffffffffffffffffffff191673ffffffffffffffffffffffffffffffffffffffff9290921691909117905550565b610b9c806101ad83390190565b6000602082840312156101a5578081fd5b503591905056fe60c0604052600760808190527f41756374696f6e0000000000000000000000000000000000000000000000000060a0908152620000409160099190620000e2565b503480156200004e57600080fd5b5060405162000b9c38038062000b9c833981016040819052620000719162000188565b60008054600160a060020a031916600160a060020a0383161790556004805460ff1916600190811782554390819055620000ab91620001b8565b600255604080516020810191829052600090819052620000ce91600391620000e2565b5050670de0b6b3a76400006008556200024c565b828054620000f090620001f6565b90600052602060002090601f0160209004810192826200011457600085556200015f565b82601f106200012f57805160ff19168380011785556200015f565b828001600101855582156200015f579182015b828111156200015f57825182559160200191906001019062000142565b506200016d92915062000171565b5090565b5b808211156200016d576000815560010162000172565b6000602082840312156200019a578081fd5b8151600160a060020a0381168114620001b1578182fd5b9392505050565b60008219821115620001f1577f4e487b710000000000000000000000000000000000000000000000000000000081526011600452602481fd5b500190565b6002810460018216806200020b57607f821691505b6020821081141562000246577f4e487b7100000000000000000000000000000000000000000000000000000000600052602260045260246000fd5b50919050565b610940806200025c6000396000f3fe6080604052600436106100c8576000357c0100000000000000000000000000000000000000000000000000000000900480638fa8b790116100815780638fa8b790146101b657806391f90157146101cb578063c623674f146101eb578063d28d88521461020d578063ecfc7ecc14610222578063f5b56c561461022a57600080fd5b8063083c6323146100d4578063430ca46f146100fd57806348cd4cb11461011457806362ea82db1461012a5780637fb45099146101575780638da5cb5b1461017e57600080fd5b366100cf57005b600080fd5b3480156100e057600080fd5b506100ea60025481565b6040519081526020015b60405180910390f35b34801561010957600080fd5b50610112610240565b005b34801561012057600080fd5b506100ea60015481565b34801561013657600080fd5b506100ea6101453660046107d8565b60076020526000908152604090205481565b34801561016357600080fd5b506004546101719060ff1681565b6040516100f49190610806565b34801561018a57600080fd5b5060005461019e90600160a060020a031681565b604051600160a060020a0390911681526020016100f4565b3480156101c257600080fd5b506101126104b6565b3480156101d757600080fd5b5060065461019e90600160a060020a031681565b3480156101f757600080fd5b5061020061054b565b6040516100f49190610831565b34801561021957600080fd5b506102006105d9565b6101126105e6565b34801561023657600080fd5b506100ea60055481565b600360045460ff16600381111561026a5760e060020a634e487b7102600052602160045260246000fd5b1480610277575060025443115b6102cb5760405160e560020a62461bcd02815260206004820152601d60248201527f5468652061756374696f6e20686173206e6f742066696e69736865642100000060448201526064015b60405180910390fd5b600054600160a060020a03163314806102f257503360009081526007602052604090205415155b6103675760405160e560020a62461bcd02815260206004820152603a60248201527f596f75206861766520616c72656164792077697468647261776e20796f75722060448201527f66756e6473206f7220796f75206e6f74206973206f776e65722100000000000060648201526084016102c2565b600080600360045460ff1660038111156103945760e060020a634e487b7102600052602160045260246000fd5b14156103b157505033600081815260076020526040902054610437565b600054600160a060020a03163314156103dd575050600054600554600160a060020a0390911690610437565b600654600160a060020a031633141561042457600654600554600160a060020a0390911660008181526007602052604090205490935061041d919061089c565b9050610437565b5050336000818152600760205260409020545b600160a060020a0382166000818152600760205260408082208290555183156108fc0291849190818181858888f1935050505015801561047b573d6000803e3d6000fd5b506004805460ff191660021790556040517f6a7798ee7f69aa0feb65d589cb03c2c77da10f2c18a03327f4f18abde8bae7cc90600090a15050565b600054600160a060020a031633146105135760405160e560020a62461bcd02815260206004820152601e60248201527f54686520616464726573732063616c6c206e6f74206973206f776e657221000060448201526064016102c2565b6004805460ff191660031790556040517f3edab9d02702b82c68bc3a966d302af41abe4f3d8e2408b27b94e5f9bf2d722c90600090a1565b60038054610558906108b3565b80601f0160208091040260200160405190810160405280929190818152602001828054610584906108b3565b80156105d15780601f106105a6576101008083540402835291602001916105d1565b820191906000526020600020905b8154815290600101906020018083116105b457829003601f168201915b505050505081565b60098054610558906108b3565b600054600160a060020a03163314156105fe57600080fd5b6001544310156106535760405160e560020a62461bcd02815260206004820152601860248201527f41756374696f6e20686173206e6f74207374617274656421000000000000000060448201526064016102c2565b6002544311156106a85760405160e560020a62461bcd02815260206004820152601660248201527f5468652061756374696f6e2068617320656e646564210000000000000000000060448201526064016102c2565b600160045460ff1660038111156106d25760e060020a634e487b7102600052602160045260246000fd5b146106dc57600080fd5b60643410156106ea57600080fd5b33600090815260076020526040812054610705903490610884565b9050600554811161071557600080fd5b336000908152600760205260409020819055600554811161076757610761600854826107419190610884565b600654600160a060020a03166000908152600760205260409020546107bf565b60055550565b600854600654600160a060020a031660009081526007602052604090205461079a9183916107959190610884565b6107bf565b6005556006805473ffffffffffffffffffffffffffffffffffffffff19163317905550565b60008183116107cf5750816107d2565b50805b92915050565b6000602082840312156107e9578081fd5b8135600160a060020a03811681146107ff578182fd5b9392505050565b602081016004831061082b5760e060020a634e487b7102600052602160045260246000fd5b91905290565b6000602080835283518082850152825b8181101561085d57858101830151858201604001528201610841565b8181111561086e5783604083870101525b50601f01601f1916929092016040019392505050565b60008219821115610897576108976108f1565b500190565b6000828210156108ae576108ae6108f1565b500390565b6002810460018216806108c757607f821691505b602082108114156108eb5760e060020a634e487b7102600052602260045260246000fd5b50919050565b60e060020a634e487b7102600052601160045260246000fdfea2646970667358221220249a12eb80435698fc4f947c7f0523372aa6a3b5ea33354e3dd6d13884ce902464736f6c63430008040033a264697066735822122072f9be5f0eb098fa3eb969cc557d50a1143a658288dcb0448f142d91c8113c8164736f6c63430008040033",
  "immutableReferences": {},
  "source": "//SPDX-License-Identifier: Unlicense    \n\npragma solidity >=0.5.0 <0.9.0;\n\ncontract AuctionCreator {\n    Auction[] public auctions; \n\n    function createAuction() public{\n        //create new auction\n        Auction newAuction = new Auction(msg.sender);\n        auctions.push(newAuction);\n    }\n}\n\ncontract Auction{\n    /** \n        @dev declare all state variables \n    */\n    address payable public owner; \n    //declare time variables with start block and end block\n    uint public startBlock;\n    uint public endBlock;\n    //declare string for IPFS Hash \n    string public ipfsHash;\n    //List for States of running Auction\n    enum State {Started, Running, Ended, Canceled}\n    State public auctionState;\n    //declare variable for the price and the highest bid\n    uint public highestBindingBid;\n    address payable public highestBidder;\n    //declare state variable for the add address for peoples lauching the auction\n    mapping(address => uint ) public bids;\n    //declare state variable for increment peoples for lauching the auction.\n    uint bidIncrement;\n\n    string public _name = \"Auction\";\n\n    receive() external payable {}\n    constructor(address eoa){\n        owner = payable(eoa);\n        auctionState = State.Running;\n        //calculate the blocktime: \n        /**@dev the block on Ethereum is updated every 15 secounds*/\n        startBlock = block.number; \n        // 1 week = 60*60*24*7 = 604800 / 15(secounds) = 40,320 \n        endBlock = startBlock + 4;\n        ipfsHash = \"\";\n        //increment = 100 wei\n        bidIncrement = 1 ether;\n\n    }\n\n    event AuctionCanceled();\n    event EndAuction();\n\n    //modifier for verift if msg.sender not owner\n    modifier  notOwner() {\n        require(msg.sender != owner); \n        _;\n    }\n    //modifier for verift if time is start\n    modifier afterStart(){\n        require(block.number >= startBlock,\"Auction has not started!\");\n        _;\n    }\n    //modifier for verift if time is end \n    modifier beforeEnd(){\n        require(block.number <= endBlock, \"The auction has ended!\");\n        _;\n    }\n    //modifier to check if msg.sender is owner\n    modifier onlyOwner(){\n        require(msg.sender == owner, \"The address call not is owner!\");\n        _;\n    }\n\n    //* function to calculate highest bid and lowest bid, \n    //* this functions is pure because not change the block (tx)\n    function min(uint a, uint b) pure internal returns(uint){\n        /**@dev if a < b return a value\n           ->  if value = a this lance A is larger\n           ->  if value = b this lance B is larger\n         */\n        if(a<=b){\n            return a;\n        }else{\n            return b;\n        }\n    }\n\n    function cancelAuction() public  onlyOwner  { \n       auctionState = State.Canceled;\n       emit AuctionCanceled();\n    }\n\n    function placeBid() external payable notOwner afterStart beforeEnd {\n        require(auctionState == State.Running);\n        require(msg.value >= 100); //min 100wei\n        \n        uint currentBid = bids[msg.sender] + msg.value; \n        require(currentBid > highestBindingBid);\n        bids[msg.sender] = currentBid;\n\n        if(currentBid <= highestBindingBid){\n            highestBindingBid = min(currentBid + bidIncrement, bids[highestBidder]);   \n        }else{\n            highestBindingBid = min(currentBid, bids[highestBidder] + bidIncrement);\n            highestBidder = payable(msg.sender);\n        }\n    }\n\n    function finishAuction() public {\n        require(auctionState == State.Canceled || block.number > endBlock, \"The auction has not finished!\");\n        require(msg.sender == owner || bids[msg.sender] > 0, \"You have already withdrawn your funds or you not is owner!\");\n    \n\n        address payable recipient;\n        uint value; \n\n        if(auctionState == State.Canceled){ //auction was canceled\n            recipient = payable(msg.sender);\n            /**@dev the bids[] is mapping value was deposit. */\n            value = bids[msg.sender];\n        }else{ //auction not canceled\n            if(msg.sender == owner){\n                recipient = owner;\n                value = highestBindingBid;\n            }else{ //this is a bidder\n               if(msg.sender == highestBidder){\n                   recipient = highestBidder;\n                   value = bids[highestBidder] - highestBindingBid;\n               }else{ // this is neither the owner nor the highestBidder\n                    recipient = payable(msg.sender);\n                    value = bids[msg.sender];\n               }\n            }\n        }\n\n        bids[recipient] = 0;\n        recipient.transfer(value);\n        auctionState = State.Ended;\n        emit EndAuction();\n    }\n}",
  "sourcePath": "/Users/nlwsoft/Desktop/Contract_Leilao/contracts/Auction.sol",
  "compiler": {
    "name": "solc",
    "version": "0.8.4+commit.c7e474f2.Emscripten.clang"
  },
  "schemaVersion": "3.4.3",
  "updatedAt": "2022-01-17T16:56:11.501Z",
  "networkType": "ethereum",
  "devdoc": {
    "kind": "dev",
    "methods": {},
    "version": 1
  },
  "userdoc": {
    "kind": "user",
    "methods": {},
    "version": 1
  }
}