{
  "contractName": "Auction",
  "abi": [
    {
      "inputs": [],
      "stateMutability": "nonpayable",
      "type": "constructor"
    },
    {
      "inputs": [],
      "name": "_name",
      "outputs": [
        {
          "internalType": "string",
          "name": "",
          "type": "string"
        }
      ],
      "stateMutability": "view",
      "type": "function",
      "constant": true
    },
    {
      "inputs": [],
      "name": "auctionState",
      "outputs": [
        {
          "internalType": "enum Auction.State",
          "name": "",
          "type": "uint8"
        }
      ],
      "stateMutability": "view",
      "type": "function",
      "constant": true
    },
    {
      "inputs": [
        {
          "internalType": "address",
          "name": "",
          "type": "address"
        }
      ],
      "name": "bids",
      "outputs": [
        {
          "internalType": "uint256",
          "name": "",
          "type": "uint256"
        }
      ],
      "stateMutability": "view",
      "type": "function",
      "constant": true
    },
    {
      "inputs": [],
      "name": "endBlock",
      "outputs": [
        {
          "internalType": "uint256",
          "name": "",
          "type": "uint256"
        }
      ],
      "stateMutability": "view",
      "type": "function",
      "constant": true
    },
    {
      "inputs": [],
      "name": "highestBidder",
      "outputs": [
        {
          "internalType": "address payable",
          "name": "",
          "type": "address"
        }
      ],
      "stateMutability": "view",
      "type": "function",
      "constant": true
    },
    {
      "inputs": [],
      "name": "highestBindingBid",
      "outputs": [
        {
          "internalType": "uint256",
          "name": "",
          "type": "uint256"
        }
      ],
      "stateMutability": "view",
      "type": "function",
      "constant": true
    },
    {
      "inputs": [],
      "name": "ipfsHash",
      "outputs": [
        {
          "internalType": "string",
          "name": "",
          "type": "string"
        }
      ],
      "stateMutability": "view",
      "type": "function",
      "constant": true
    },
    {
      "inputs": [],
      "name": "owner",
      "outputs": [
        {
          "internalType": "address payable",
          "name": "",
          "type": "address"
        }
      ],
      "stateMutability": "view",
      "type": "function",
      "constant": true
    },
    {
      "inputs": [],
      "name": "startBlock",
      "outputs": [
        {
          "internalType": "uint256",
          "name": "",
          "type": "uint256"
        }
      ],
      "stateMutability": "view",
      "type": "function",
      "constant": true
    },
    {
      "inputs": [],
      "name": "name",
      "outputs": [
        {
          "internalType": "string",
          "name": "",
          "type": "string"
        }
      ],
      "stateMutability": "view",
      "type": "function",
      "constant": true
    },
    {
      "inputs": [],
      "name": "placeBid",
      "outputs": [],
      "stateMutability": "payable",
      "type": "function",
      "payable": true
    }
  ],
  "bytecode": "0x60c0604052600760808190527f41756374696f6e0000000000000000000000000000000000000000000000000060a090815261003e91600991906100ab565b5034801561004b57600080fd5b5060008054600160a060020a031916331790556004805460ff19166001908117909155439081905561007f90619d80610144565b6002556040805160208101918290526000908190526100a0916003916100ab565b5060646008556101d5565b8280546100b790610181565b90600052602060002090601f0160209004810192826100d9576000855561011f565b82601f106100f257805160ff191683800117855561011f565b8280016001018555821561011f579182015b8281111561011f578251825591602001919060010190610104565b5061012b92915061012f565b5090565b5b8082111561012b5760008155600101610130565b6000821982111561017c577f4e487b710000000000000000000000000000000000000000000000000000000081526011600452602481fd5b500190565b60028104600182168061019557607f821691505b602082108114156101cf577f4e487b7100000000000000000000000000000000000000000000000000000000600052602260045260246000fd5b50919050565b6105f3806101e46000396000f3fe6080604052600436106100b9576000357c0100000000000000000000000000000000000000000000000000000000900480638da5cb5b116100815780638da5cb5b1461017757806391f90157146101af578063c623674f146101cf578063d28d8852146101e4578063ecfc7ecc146101f9578063f5b56c561461020357600080fd5b806306fdde03146100be578063083c6323146100e957806348cd4cb11461010d57806362ea82db146101235780637fb4509914610150575b600080fd5b3480156100ca57600080fd5b506100d3610219565b6040516100e09190610505565b60405180910390f35b3480156100f557600080fd5b506100ff60025481565b6040519081526020016100e0565b34801561011957600080fd5b506100ff60015481565b34801561012f57600080fd5b506100ff61013e3660046104ac565b60076020526000908152604090205481565b34801561015c57600080fd5b5060045461016a9060ff1681565b6040516100e091906104da565b34801561018357600080fd5b5060005461019790600160a060020a031681565b604051600160a060020a0390911681526020016100e0565b3480156101bb57600080fd5b5060065461019790600160a060020a031681565b3480156101db57600080fd5b506100d36102ab565b3480156101f057600080fd5b506100d3610339565b610201610346565b005b34801561020f57600080fd5b506100ff60055481565b6060600980546102289061057f565b80601f01602080910402602001604051908101604052809291908181526020018280546102549061057f565b80156102a15780601f10610276576101008083540402835291602001916102a1565b820191906000526020600020905b81548152906001019060200180831161028457829003601f168201915b5050505050905090565b600380546102b89061057f565b80601f01602080910402602001604051908101604052809291908181526020018280546102e49061057f565b80156103315780601f1061030657610100808354040283529160200191610331565b820191906000526020600020905b81548152906001019060200180831161031457829003601f168201915b505050505081565b600980546102b89061057f565b600054600160a060020a031633141561035e57600080fd5b60015443101561036d57600080fd5b60025443111561037c57600080fd5b600160045460ff1660038111156103a65760e060020a634e487b7102600052602160045260246000fd5b146103b057600080fd5b60643410156103be57600080fd5b336000908152600760205260408120546103d9903490610558565b905060055481116103e957600080fd5b336000908152600760205260409020819055600554811161043b57610435600854826104159190610558565b600654600160a060020a0316600090815260076020526040902054610493565b60055550565b600854600654600160a060020a031660009081526007602052604090205461046e9183916104699190610558565b610493565b6005556006805473ffffffffffffffffffffffffffffffffffffffff19163317905550565b60008183116104a35750816104a6565b50805b92915050565b6000602082840312156104bd578081fd5b8135600160a060020a03811681146104d3578182fd5b9392505050565b60208101600483106104ff5760e060020a634e487b7102600052602160045260246000fd5b91905290565b6000602080835283518082850152825b8181101561053157858101830151858201604001528201610515565b818111156105425783604083870101525b50601f01601f1916929092016040019392505050565b6000821982111561057a5760e060020a634e487b710281526011600452602481fd5b500190565b60028104600182168061059357607f821691505b602082108114156105b75760e060020a634e487b7102600052602260045260246000fd5b5091905056fea2646970667358221220890e0d50ef02870063cbeedfa16b8e1fb1d82315591ca0afc8283f5c0782cdda64736f6c63430008040033",
  "immutableReferences": {},
  "source": "//SPDX-License-Identifier: Unlicense    \n\npragma solidity >=0.5.0 <0.9.0;\n\ncontract Auction{\n    /** \n        @dev declare all state variables \n    */\n    address payable public owner; \n    //declare time variables with start block and end block\n    uint public startBlock;\n    uint public endBlock;\n    //declare string for IPFS Hash \n    string public ipfsHash;\n    //List for States of running Auction\n    enum State {Started, Running, Ended, Canceled}\n    State public auctionState;\n    //declare variable for the price and the highest bid\n    uint public highestBindingBid;\n    address payable public highestBidder;\n    //declare state variable for the add address for peoples lauching the auction\n    mapping(address => uint ) public bids;\n    //declare state variable for increment peoples for lauching the auction.\n    uint bidIncrement;\n\n    string public _name = \"Auction\";\n\n\n    constructor(){\n        owner = payable(msg.sender);\n        auctionState = State.Running;\n        //calculate the blocktime: \n        /**@dev the block on Ethereum is updated every 15 secounds*/\n        startBlock = block.number; \n        // 1 week = 60*60*24*7 = 604800 / 15(secounds) = 40,320 \n        endBlock = startBlock + 40320;\n        ipfsHash = \"\";\n        //increment = 100 wei\n        bidIncrement = 100;\n\n    }\n\n    //modifier for verift if msg.sender not owner\n    modifier  notOwner() {\n        require(msg.sender != owner); \n        _;\n    }\n    //modifier for verift if time is start\n    modifier afterStart(){\n        require(block.number >= startBlock);\n        _;\n    }\n    //modifier for verift if time is end \n    modifier beforeEnd(){\n        require(block.number <= endBlock);\n        _;\n    }\n\n    function name() public view returns(string memory){\n        return _name;\n    }\n    //* function to calculate highest bid and lowest bid, \n    //* this functions is pure because not change the block (tx)\n    function min(uint a, uint b) pure internal returns(uint){\n        /**@dev if a < b return a value\n           ->  if value = a this lance A is larger\n           ->  if value = b this lance B is larger\n         */\n        if(a<=b){\n            return a;\n        }else{\n            return b;\n        }\n    }\n\n    function placeBid() public payable notOwner afterStart beforeEnd {\n        require(auctionState == State.Running);\n        require(msg.value >= 100); //min 100wei\n        \n        uint currentBid = bids[msg.sender] + msg.value; \n        require(currentBid > highestBindingBid);\n        bids[msg.sender] = currentBid;\n\n        if(currentBid <= highestBindingBid){\n            highestBindingBid = min(currentBid + bidIncrement, bids[highestBidder]);   \n        }else{\n            highestBindingBid = min(currentBid, bids[highestBidder] + bidIncrement);\n            highestBidder = payable(msg.sender);\n        }\n    }\n\n \n\n}",
  "sourcePath": "/Users/nlwsoft/Desktop/Contract_Leilao/contracts/Auction.sol",
  "compiler": {
    "name": "solc",
    "version": "0.8.4+commit.c7e474f2.Emscripten.clang"
  },
  "schemaVersion": "3.4.3",
  "updatedAt": "2022-01-17T00:43:03.588Z",
  "networkType": "ethereum",
  "devdoc": {
    "kind": "dev",
    "methods": {},
    "stateVariables": {
      "owner": {
        "details": "declare all state variables "
      }
    },
    "version": 1
  },
  "userdoc": {
    "kind": "user",
    "methods": {},
    "version": 1
  }
}