{
  "contractName": "Creator",
  "abi": [
    {
      "inputs": [],
      "stateMutability": "nonpayable",
      "type": "constructor"
    },
    {
      "inputs": [
        {
          "internalType": "uint256",
          "name": "",
          "type": "uint256"
        }
      ],
      "name": "deployedA",
      "outputs": [
        {
          "internalType": "contract A",
          "name": "",
          "type": "address"
        }
      ],
      "stateMutability": "view",
      "type": "function"
    },
    {
      "inputs": [],
      "name": "ownerCreator",
      "outputs": [
        {
          "internalType": "address",
          "name": "",
          "type": "address"
        }
      ],
      "stateMutability": "view",
      "type": "function"
    },
    {
      "inputs": [],
      "name": "deployA",
      "outputs": [],
      "stateMutability": "nonpayable",
      "type": "function"
    }
  ],
  "bytecode": "0x608060405234801561001057600080fd5b5060008054600160a060020a03191633179055610366806100326000396000f3fe608060405234801561001057600080fd5b506004361061005d577c0100000000000000000000000000000000000000000000000000000000600035046394fa41988114610062578063f0a31d26146100ab578063f4baaa61146100be575b600080fd5b6000546100829073ffffffffffffffffffffffffffffffffffffffff1681565b60405173ffffffffffffffffffffffffffffffffffffffff909116815260200160405180910390f35b6100826100b93660046101c1565b6100c8565b6100c66100ff565b005b600181815481106100d857600080fd5b60009182526020909120015473ffffffffffffffffffffffffffffffffffffffff16905081565b60003360405161010e906101b4565b73ffffffffffffffffffffffffffffffffffffffff9091168152602001604051809103906000f080158015610147573d6000803e3d6000fd5b506001805480820182556000919091527fb10e2d527612073b26eecdfd717e6a320cf44b4afac2b0732d9fcbe2b7fa0cf601805473ffffffffffffffffffffffffffffffffffffffff191673ffffffffffffffffffffffffffffffffffffffff9290921691909117905550565b610157806101da83390190565b6000602082840312156101d2578081fd5b503591905056fe608060405234801561001057600080fd5b5060405161015738038061015783398101604081905261002f91610054565b60008054600160a060020a031916600160a060020a0392909216919091179055610082565b600060208284031215610065578081fd5b8151600160a060020a038116811461007b578182fd5b9392505050565b60c7806100906000396000f3fe6080604052348015600f57600080fd5b50600436106044577c01000000000000000000000000000000000000000000000000000000006000350463e06f3d3881146049575b600080fd5b60005460689073ffffffffffffffffffffffffffffffffffffffff1681565b60405173ffffffffffffffffffffffffffffffffffffffff909116815260200160405180910390f3fea26469706673582212202a13abe3a21f825e109dec872f7a6222f6d7db0984dc3c3bc1549869ca5dc0b164736f6c63430008040033a264697066735822122004aaa441babfc645a5320e63f03d389c04136817aad997714891e401bdfc13f264736f6c63430008040033",
  "immutableReferences": {},
  "source": "//SPDX-License-Identifier: Unlicense    \n\npragma solidity >=0.5.0 <0.9.0;\n\ncontract A{\n    address public ownerA;\n    constructor(address eoa){\n        ownerA = eoa;\n    }\n}\n\ncontract Creator{\n    address public ownerCreator;\n    A[] public deployedA;\n\n    constructor() {\n        ownerCreator = msg.sender;\n    }\n\n    function deployA() public {\n        A new_A_address = new A(msg.sender);\n        deployedA.push(new_A_address);\n    }\n}\n",
  "sourcePath": "/Users/nlwsoft/Desktop/Contract_Leilao/contracts/Scability/deployContracts.sol",
  "compiler": {
    "name": "solc",
    "version": "0.8.4+commit.c7e474f2.Emscripten.clang"
  },
  "schemaVersion": "3.4.3",
  "updatedAt": "2022-01-17T16:48:38.938Z",
  "devdoc": {
    "kind": "dev",
    "methods": {},
    "version": 1
  },
  "userdoc": {
    "kind": "user",
    "methods": {},
    "version": 1
  }
}